{
  "contractName": "ValidatePatient",
  "abi": [
    {
      "anonymous": false,
      "inputs": [
        {
          "indexed": false,
          "internalType": "string",
          "name": "code",
          "type": "string"
        },
        {
          "indexed": false,
          "internalType": "string",
          "name": "name",
          "type": "string"
        },
        {
          "indexed": false,
          "internalType": "uint256",
          "name": "temperature",
          "type": "uint256"
        },
        {
          "indexed": false,
          "internalType": "bytes32[]",
          "name": "hashList",
          "type": "bytes32[]"
        }
      ],
      "name": "PatientAdded",
      "type": "event"
    },
    {
      "inputs": [],
      "name": "patientCount",
      "outputs": [
        {
          "internalType": "uint256",
          "name": "",
          "type": "uint256"
        }
      ],
      "stateMutability": "view",
      "type": "function",
      "constant": true
    },
    {
      "inputs": [
        {
          "internalType": "uint256",
          "name": "",
          "type": "uint256"
        }
      ],
      "name": "patientsList",
      "outputs": [
        {
          "internalType": "string",
          "name": "code",
          "type": "string"
        },
        {
          "internalType": "string",
          "name": "name",
          "type": "string"
        },
        {
          "internalType": "uint256",
          "name": "temperature",
          "type": "uint256"
        }
      ],
      "stateMutability": "view",
      "type": "function",
      "constant": true
    },
    {
      "inputs": [
        {
          "internalType": "string",
          "name": "_code",
          "type": "string"
        },
        {
          "internalType": "string",
          "name": "_name",
          "type": "string"
        },
        {
          "internalType": "uint256",
          "name": "_temperature",
          "type": "uint256"
        },
        {
          "internalType": "bytes32[]",
          "name": "_hashList",
          "type": "bytes32[]"
        }
      ],
      "name": "addPatient",
      "outputs": [],
      "stateMutability": "nonpayable",
      "type": "function"
    }
  ],
  "bytecode": "0x60806040526000805534801561001457600080fd5b50610a86806100246000396000f3fe608060405234801561001057600080fd5b50600436106100415760003560e01c806380866a3a14610046578063a0303c4114610062578063dc65bef414610080575b600080fd5b610060600480360381019061005b9190610680565b6100b2565b005b61006a6101a5565b604051610077919061074a565b60405180910390f35b61009a60048036038101906100959190610765565b6101ab565b6040516100a99392919061081a565b60405180910390f35b6000808154809291906100c49061088e565b91905055506040518060800160405280858152602001848152602001838152602001828152506001600080548152602001908152602001600020600082015181600001908051906020019061011a9291906102e5565b5060208201518160010190805190602001906101379291906102e5565b5060408201518160020155606082015181600301908051906020019061015e92919061036b565b509050507f2c11680bb11f2b69d44bfa48e48bbfffcf3e471db52d5b348c6b988d8c377687848484846040516101979493929190610995565b60405180910390a150505050565b60005481565b60016020528060005260406000206000915090508060000180546101ce90610a1e565b80601f01602080910402602001604051908101604052809291908181526020018280546101fa90610a1e565b80156102475780601f1061021c57610100808354040283529160200191610247565b820191906000526020600020905b81548152906001019060200180831161022a57829003601f168201915b50505050509080600101805461025c90610a1e565b80601f016020809104026020016040519081016040528092919081815260200182805461028890610a1e565b80156102d55780601f106102aa576101008083540402835291602001916102d5565b820191906000526020600020905b8154815290600101906020018083116102b857829003601f168201915b5050505050908060020154905083565b8280546102f190610a1e565b90600052602060002090601f016020900481019282610313576000855561035a565b82601f1061032c57805160ff191683800117855561035a565b8280016001018555821561035a579182015b8281111561035957825182559160200191906001019061033e565b5b50905061036791906103b8565b5090565b8280548282559060005260206000209081019282156103a7579160200282015b828111156103a657825182559160200191906001019061038b565b5b5090506103b491906103d5565b5090565b5b808211156103d15760008160009055506001016103b9565b5090565b5b808211156103ee5760008160009055506001016103d6565b5090565b6000604051905090565b600080fd5b600080fd5b600080fd5b600080fd5b6000601f19601f8301169050919050565b7f4e487b7100000000000000000000000000000000000000000000000000000000600052604160045260246000fd5b61045982610410565b810181811067ffffffffffffffff8211171561047857610477610421565b5b80604052505050565b600061048b6103f2565b90506104978282610450565b919050565b600067ffffffffffffffff8211156104b7576104b6610421565b5b6104c082610410565b9050602081019050919050565b82818337600083830152505050565b60006104ef6104ea8461049c565b610481565b90508281526020810184848401111561050b5761050a61040b565b5b6105168482856104cd565b509392505050565b600082601f83011261053357610532610406565b5b81356105438482602086016104dc565b91505092915050565b6000819050919050565b61055f8161054c565b811461056a57600080fd5b50565b60008135905061057c81610556565b92915050565b600067ffffffffffffffff82111561059d5761059c610421565b5b602082029050602081019050919050565b600080fd5b6000819050919050565b6105c6816105b3565b81146105d157600080fd5b50565b6000813590506105e3816105bd565b92915050565b60006105fc6105f784610582565b610481565b9050808382526020820190506020840283018581111561061f5761061e6105ae565b5b835b81811015610648578061063488826105d4565b845260208401935050602081019050610621565b5050509392505050565b600082601f83011261066757610666610406565b5b81356106778482602086016105e9565b91505092915050565b6000806000806080858703121561069a576106996103fc565b5b600085013567ffffffffffffffff8111156106b8576106b7610401565b5b6106c48782880161051e565b945050602085013567ffffffffffffffff8111156106e5576106e4610401565b5b6106f18782880161051e565b93505060406107028782880161056d565b925050606085013567ffffffffffffffff81111561072357610722610401565b5b61072f87828801610652565b91505092959194509250565b6107448161054c565b82525050565b600060208201905061075f600083018461073b565b92915050565b60006020828403121561077b5761077a6103fc565b5b60006107898482850161056d565b91505092915050565b600081519050919050565b600082825260208201905092915050565b60005b838110156107cc5780820151818401526020810190506107b1565b838111156107db576000848401525b50505050565b60006107ec82610792565b6107f6818561079d565b93506108068185602086016107ae565b61080f81610410565b840191505092915050565b6000606082019050818103600083015261083481866107e1565b9050818103602083015261084881856107e1565b9050610857604083018461073b565b949350505050565b7f4e487b7100000000000000000000000000000000000000000000000000000000600052601160045260246000fd5b60006108998261054c565b91507fffffffffffffffffffffffffffffffffffffffffffffffffffffffffffffffff8214156108cc576108cb61085f565b5b600182019050919050565b600081519050919050565b600082825260208201905092915050565b6000819050602082019050919050565b61090c816105b3565b82525050565b600061091e8383610903565b60208301905092915050565b6000602082019050919050565b6000610942826108d7565b61094c81856108e2565b9350610957836108f3565b8060005b8381101561098857815161096f8882610912565b975061097a8361092a565b92505060018101905061095b565b5085935050505092915050565b600060808201905081810360008301526109af81876107e1565b905081810360208301526109c381866107e1565b90506109d2604083018561073b565b81810360608301526109e48184610937565b905095945050505050565b7f4e487b7100000000000000000000000000000000000000000000000000000000600052602260045260246000fd5b60006002820490506001821680610a3657607f821691505b60208210811415610a4a57610a496109ef565b5b5091905056fea264697066735822122042c07118f143c988fbd1278e376a587c731f6b4ef36f4301aae39ff37695a59c64736f6c634300080b0033",
  "immutableReferences": {},
  "source": "// SPDX-License-Identifier: MIT\r\npragma solidity ^0.8.0;\r\n\r\ncontract ValidatePatient{\r\n    uint256 public patientCount = 0;\r\n\r\n    mapping(uint256 => Patient) public patientsList;\r\n\r\n    struct Patient {\r\n        string code;\r\n        string name;\r\n        uint256 temperature;\r\n        bytes32[] hashList;\r\n    }\r\n\r\n    event PatientAdded(\r\n        string code,\r\n        string name,\r\n        uint256 temperature,\r\n        bytes32[] hashList\r\n    );\r\n\r\n    function addPatient(string memory _code, string memory _name, uint256 _temperature, bytes32[] memory _hashList) public {\r\n        patientCount++;\r\n        patientsList[patientCount] = Patient(_code, _name, _temperature, _hashList);\r\n        emit PatientAdded(_code, _name, _temperature, _hashList); \r\n    }\r\n}\r\n",
  "sourcePath": "C:\\Users\\ASUS\\PFA5.0\\mongo\\truffle\\contracts\\ValidatePatient.sol",
  "compiler": {
    "name": "solc",
    "version": "0.8.11+commit.d7f03943.Emscripten.clang"
  },
  "schemaVersion": "3.4.4",
  "updatedAt": "2024-02-10T00:00:54.138Z",
  "networkType": "ethereum",
  "devdoc": {
    "kind": "dev",
    "methods": {},
    "version": 1
  },
  "userdoc": {
    "kind": "user",
    "methods": {},
    "version": 1
  }
}